{
  "_format": "hh-sol-artifact-1",
  "contractName": "UniversityDiploma",
  "sourceName": "contracts/UniversityDiploma.sol",
  "abi": [
    {
      "inputs": [
        {
          "internalType": "string",
          "name": "_name",
          "type": "string"
        },
        {
          "internalType": "string",
          "name": "_symbol",
          "type": "string"
        }
      ],
      "stateMutability": "payable",
      "type": "constructor"
    },
    {
      "inputs": [],
      "name": "BalanceQueryForZeroAddress",
      "type": "error"
    },
    {
      "inputs": [],
      "name": "DiplomaExistsError",
      "type": "error"
    },
    {
      "inputs": [],
      "name": "DiplomaNotFoundError",
      "type": "error"
    },
    {
      "inputs": [],
      "name": "ForbiddenError",
      "type": "error"
    },
    {
      "inputs": [],
      "name": "MintToZeroAddress",
      "type": "error"
    },
    {
      "inputs": [],
      "name": "MintZeroQuantity",
      "type": "error"
    },
    {
      "inputs": [],
      "name": "OwnerQueryForNonexistentToken",
      "type": "error"
    },
    {
      "inputs": [],
      "name": "TransferToNonERC721ReceiverImplementer",
      "type": "error"
    },
    {
      "inputs": [],
      "name": "URIQueryForNonexistentToken",
      "type": "error"
    },
    {
      "anonymous": false,
      "inputs": [
        {
          "indexed": false,
          "internalType": "bytes32",
          "name": "hash",
          "type": "bytes32"
        },
        {
          "indexed": false,
          "internalType": "address",
          "name": "student",
          "type": "address"
        },
        {
          "indexed": false,
          "internalType": "uint256",
          "name": "tokenId",
          "type": "uint256"
        }
      ],
      "name": "DiplomaAdded",
      "type": "event"
    },
    {
      "anonymous": false,
      "inputs": [
        {
          "indexed": true,
          "internalType": "address",
          "name": "previousOwner",
          "type": "address"
        },
        {
          "indexed": true,
          "internalType": "address",
          "name": "newOwner",
          "type": "address"
        }
      ],
      "name": "OwnershipTransferred",
      "type": "event"
    },
    {
      "anonymous": false,
      "inputs": [
        {
          "indexed": true,
          "internalType": "address",
          "name": "from",
          "type": "address"
        },
        {
          "indexed": true,
          "internalType": "address",
          "name": "to",
          "type": "address"
        },
        {
          "indexed": true,
          "internalType": "uint256",
          "name": "tokenId",
          "type": "uint256"
        }
      ],
      "name": "Transfer",
      "type": "event"
    },
    {
      "inputs": [
        {
          "internalType": "bytes32",
          "name": "diplomaHash",
          "type": "bytes32"
        },
        {
          "internalType": "string",
          "name": "tokenUri",
          "type": "string"
        },
        {
          "internalType": "address",
          "name": "student",
          "type": "address"
        }
      ],
      "name": "addDiploma",
      "outputs": [],
      "stateMutability": "nonpayable",
      "type": "function"
    },
    {
      "inputs": [
        {
          "internalType": "address",
          "name": "editorAddr",
          "type": "address"
        }
      ],
      "name": "addEditor",
      "outputs": [],
      "stateMutability": "nonpayable",
      "type": "function"
    },
    {
      "inputs": [
        {
          "internalType": "address",
          "name": "owner",
          "type": "address"
        }
      ],
      "name": "balanceOf",
      "outputs": [
        {
          "internalType": "uint256",
          "name": "",
          "type": "uint256"
        }
      ],
      "stateMutability": "view",
      "type": "function"
    },
    {
      "inputs": [
        {
          "internalType": "address",
          "name": "",
          "type": "address"
        }
      ],
      "name": "editors",
      "outputs": [
        {
          "internalType": "bool",
          "name": "",
          "type": "bool"
        }
      ],
      "stateMutability": "view",
      "type": "function"
    },
    {
      "inputs": [
        {
          "internalType": "bytes32",
          "name": "diplomaHash",
          "type": "bytes32"
        }
      ],
      "name": "getDiploma",
      "outputs": [
        {
          "internalType": "string",
          "name": "",
          "type": "string"
        }
      ],
      "stateMutability": "view",
      "type": "function"
    },
    {
      "inputs": [
        {
          "internalType": "address",
          "name": "studentAddr",
          "type": "address"
        }
      ],
      "name": "getStudentDiplomas",
      "outputs": [
        {
          "internalType": "string[]",
          "name": "",
          "type": "string[]"
        }
      ],
      "stateMutability": "view",
      "type": "function"
    },
    {
      "inputs": [],
      "name": "name",
      "outputs": [
        {
          "internalType": "string",
          "name": "",
          "type": "string"
        }
      ],
      "stateMutability": "view",
      "type": "function"
    },
    {
      "inputs": [],
      "name": "owner",
      "outputs": [
        {
          "internalType": "address",
          "name": "",
          "type": "address"
        }
      ],
      "stateMutability": "view",
      "type": "function"
    },
    {
      "inputs": [
        {
          "internalType": "uint256",
          "name": "tokenId",
          "type": "uint256"
        }
      ],
      "name": "ownerOf",
      "outputs": [
        {
          "internalType": "address",
          "name": "",
          "type": "address"
        }
      ],
      "stateMutability": "view",
      "type": "function"
    },
    {
      "inputs": [
        {
          "internalType": "bytes32",
          "name": "diplomaHash",
          "type": "bytes32"
        }
      ],
      "name": "removeDiploma",
      "outputs": [],
      "stateMutability": "nonpayable",
      "type": "function"
    },
    {
      "inputs": [
        {
          "internalType": "address",
          "name": "editorAddr",
          "type": "address"
        }
      ],
      "name": "removeEditor",
      "outputs": [],
      "stateMutability": "nonpayable",
      "type": "function"
    },
    {
      "inputs": [],
      "name": "renounceOwnership",
      "outputs": [],
      "stateMutability": "nonpayable",
      "type": "function"
    },
    {
      "inputs": [
        {
          "internalType": "bytes4",
          "name": "interfaceId",
          "type": "bytes4"
        }
      ],
      "name": "supportsInterface",
      "outputs": [
        {
          "internalType": "bool",
          "name": "",
          "type": "bool"
        }
      ],
      "stateMutability": "view",
      "type": "function"
    },
    {
      "inputs": [],
      "name": "symbol",
      "outputs": [
        {
          "internalType": "string",
          "name": "",
          "type": "string"
        }
      ],
      "stateMutability": "view",
      "type": "function"
    },
    {
      "inputs": [
        {
          "internalType": "uint256",
          "name": "tokenId",
          "type": "uint256"
        }
      ],
      "name": "tokenURI",
      "outputs": [
        {
          "internalType": "string",
          "name": "",
          "type": "string"
        }
      ],
      "stateMutability": "view",
      "type": "function"
    },
    {
      "inputs": [],
      "name": "totalSupply",
      "outputs": [
        {
          "internalType": "uint256",
          "name": "",
          "type": "uint256"
        }
      ],
      "stateMutability": "view",
      "type": "function"
    },
    {
      "inputs": [
        {
          "internalType": "address",
          "name": "newOwner",
          "type": "address"
        }
      ],
      "name": "transferOwnership",
      "outputs": [],
      "stateMutability": "nonpayable",
      "type": "function"
    },
    {
      "inputs": [
        {
          "internalType": "bytes32",
          "name": "diplomaHash",
          "type": "bytes32"
        },
        {
          "internalType": "address",
          "name": "studentAddr",
          "type": "address"
        }
      ],
      "name": "verifyDiploma",
      "outputs": [
        {
          "internalType": "bool",
          "name": "",
          "type": "bool"
        }
      ],
      "stateMutability": "view",
      "type": "function"
    },
    {
      "inputs": [
        {
          "internalType": "bytes32",
          "name": "diplomaHash",
          "type": "bytes32"
        }
      ],
      "name": "verifyDiploma",
      "outputs": [
        {
          "internalType": "bool",
          "name": "",
          "type": "bool"
        }
      ],
      "stateMutability": "view",
      "type": "function"
    }
  ],
  "bytecode": "0x6080604052604051620018db380380620018db833981016040819052620000269162000190565b818162000033336200007b565b600362000041838262000289565b50600462000050828262000289565b506001808155336000908152600760205260409020805460ff19169091179055506200035592505050565b600080546001600160a01b038381166001600160a01b0319831681178455604051919092169283917f8be0079c531659141344cd1fd0a4f28419497f9722a3daafe3b4186f6b6457e09190a35050565b634e487b7160e01b600052604160045260246000fd5b600082601f830112620000f357600080fd5b81516001600160401b0380821115620001105762000110620000cb565b604051601f8301601f19908116603f011681019082821181831017156200013b576200013b620000cb565b816040528381526020925086838588010111156200015857600080fd5b600091505b838210156200017c57858201830151818301840152908201906200015d565b600093810190920192909252949350505050565b60008060408385031215620001a457600080fd5b82516001600160401b0380821115620001bc57600080fd5b620001ca86838701620000e1565b93506020850151915080821115620001e157600080fd5b50620001f085828601620000e1565b9150509250929050565b600181811c908216806200020f57607f821691505b6020821081036200023057634e487b7160e01b600052602260045260246000fd5b50919050565b601f8211156200028457600081815260208120601f850160051c810160208610156200025f5750805b601f850160051c820191505b8181101562000280578281556001016200026b565b5050505b505050565b81516001600160401b03811115620002a557620002a5620000cb565b620002bd81620002b68454620001fa565b8462000236565b602080601f831160018114620002f55760008415620002dc5750858301515b600019600386901b1c1916600185901b17855562000280565b600085815260208120601f198616915b82811015620003265788860151825594840194600190910190840162000305565b5085821015620003455787850151600019600388901b60f8161c191681555b5050505050600190811b01905550565b61157680620003656000396000f3fe608060405234801561001057600080fd5b50600436106101515760003560e01c80638da5cb5b116100cd578063e5975bdc11610081578063eb9ea1cf11610066578063eb9ea1cf146102d2578063eddb7929146102e5578063f2fde38b146102f857600080fd5b8063e5975bdc1461029d578063e89cc997146102b057600080fd5b8063c87b56dd116100b2578063c87b56dd14610247578063cd52844d1461025a578063d1b932921461027d57600080fd5b80638da5cb5b1461022e57806395d89b411461023f57600080fd5b80632d55feaf116101245780636352211e116101095780636352211e146101e857806370a0823114610213578063715018a61461022657600080fd5b80632d55feaf146101c05780633491cb5e146101d557600080fd5b806301ffc9a71461015657806306fdde031461017e57806318160ddd146101935780632b04cb77146101ad575b600080fd5b610169610164366004611135565b61030b565b60405190151581526020015b60405180910390f35b6101866103a8565b60405161017591906111a2565b60025460015403600019015b604051908152602001610175565b6101866101bb3660046111b5565b61043a565b6101d36101ce3660046111ea565b61045c565b005b6101696101e3366004611205565b610485565b6101fb6101f63660046111b5565b6104ca565b6040516001600160a01b039091168152602001610175565b61019f6102213660046111ea565b6104d5565b6101d361053d565b6000546001600160a01b03166101fb565b610186610551565b6101866102553660046111b5565b610560565b6101696102683660046111ea565b60076020526000908152604090205460ff1681565b61029061028b3660046111ea565b61063f565b6040516101759190611231565b6101d36102ab3660046111ea565b6107b9565b6101696102be3660046111b5565b600090815260086020526040902054151590565b6101d36102e0366004611293565b6107e5565b6101d36102f33660046111b5565b61098f565b6101d36103063660046111ea565b610b00565b60007f01ffc9a7000000000000000000000000000000000000000000000000000000006001600160e01b03198316148061036e57507f80ac58cd000000000000000000000000000000000000000000000000000000006001600160e01b03198316145b806103a257507f5b5e139f000000000000000000000000000000000000000000000000000000006001600160e01b03198316145b92915050565b6060600380546103b790611320565b80601f01602080910402602001604051908101604052809291908181526020018280546103e390611320565b80156104305780601f1061040557610100808354040283529160200191610430565b820191906000526020600020905b81548152906001019060200180831161041357829003601f168201915b5050505050905090565b60008181526008602052604090205460609061045581610560565b9392505050565b610464610b95565b6001600160a01b03166000908152600760205260409020805460ff19169055565b6000828152600860205260408120548082036104a55760009150506103a2565b826001600160a01b03166104b8826104ca565b6001600160a01b031614949350505050565b60006103a282610bef565b60006001600160a01b038216610517576040517f8f4eb60400000000000000000000000000000000000000000000000000000000815260040160405180910390fd5b506001600160a01b031660009081526006602052604090205467ffffffffffffffff1690565b610545610b95565b61054f6000610c77565b565b6060600480546103b790611320565b606061056b82610cdf565b6105a1576040517fa14c4b5000000000000000000000000000000000000000000000000000000000815260040160405180910390fd5b6000828152600a6020526040902080546105ba90611320565b80601f01602080910402602001604051908101604052809291908181526020018280546105e690611320565b80156106335780601f1061060857610100808354040283529160200191610633565b820191906000526020600020905b81548152906001019060200180831161061657829003601f168201915b50505050509050919050565b6060600061064c836104d5565b905060008167ffffffffffffffff8111156106695761066961135a565b60405190808252806020026020018201604052801561069c57816020015b60608152602001906001900390816106875790505b509050816000036106ae579392505050565b600060015b6001548110156107af57856001600160a01b03166106d0826104ca565b6001600160a01b03160361079f576000818152600a6020526040902080546106f790611320565b80601f016020809104026020016040519081016040528092919081815260200182805461072390611320565b80156107705780601f1061074557610100808354040283529160200191610770565b820191906000526020600020905b81548152906001019060200180831161075357829003601f168201915b505050505083838061078190611370565b94508151811061079357610793611397565b60200260200101819052505b6107a881611370565b90506106b3565b5090949350505050565b6107c1610b95565b6001600160a01b03166000908152600760205260409020805460ff19166001179055565b3360009081526007602052604090205460ff166108155760405163835be21160e01b815260040160405180910390fd5b8383838080601f01602080910402602001604051908101604052809392919081815260200183838082843760009201829052508581526008602052604080822054905190151594509092506009915061086f9085906113ad565b9081526040519081900360200190205460ff169050818061088d5750805b156108c4576040517ffc4c9afe00000000000000000000000000000000000000000000000000000000815260040160405180910390fd5b60006108cf60015490565b60008a8152600860209081526040808320849055838352600a90915290209091506108fb888a83611417565b506001600989896040516109109291906114d7565b908152604051908190036020019020805491151560ff1990921691909117905561093b866001610d14565b604080518a81526001600160a01b03881660208201529081018290527f1c1b77998683ec6acc31e0e5115d67bef9342b746e4ec92ba13cb5ca739809f09060600160405180910390a1505050505050505050565b3360009081526007602052604090205460ff166109bf5760405163835be21160e01b815260040160405180910390fd5b60008181526008602052604081205490819003610a08576040517f6685e96f00000000000000000000000000000000000000000000000000000000815260040160405180910390fd5b6000828152600860209081526040808320839055838352600a90915281208054610a3190611320565b80601f0160208091040260200160405190810160405280929190818152602001828054610a5d90611320565b8015610aaa5780601f10610a7f57610100808354040283529160200191610aaa565b820191906000526020600020905b815481529060010190602001808311610a8d57829003601f168201915b5050506000858152600a60205260408120939450610acb93925090506110d1565b600981604051610adb91906113ad565b908152604051908190036020019020805460ff19169055610afb82610d32565b505050565b610b08610b95565b6001600160a01b038116610b895760405162461bcd60e51b815260206004820152602660248201527f4f776e61626c653a206e6577206f776e657220697320746865207a65726f206160448201527f646472657373000000000000000000000000000000000000000000000000000060648201526084015b60405180910390fd5b610b9281610c77565b50565b6000546001600160a01b0316331461054f5760405162461bcd60e51b815260206004820181905260248201527f4f776e61626c653a2063616c6c6572206973206e6f7420746865206f776e65726044820152606401610b80565b60008180600111610c4557600154811015610c455760008181526005602052604081205490600160e01b82169003610c43575b80600003610455575060001901600081815260056020526040902054610c22565b505b6040517fdf2d9b4200000000000000000000000000000000000000000000000000000000815260040160405180910390fd5b600080546001600160a01b038381167fffffffffffffffffffffffff0000000000000000000000000000000000000000831681178455604051919092169283917f8be0079c531659141344cd1fd0a4f28419497f9722a3daafe3b4186f6b6457e09190a35050565b600081600111158015610cf3575060015482105b80156103a2575050600090815260056020526040902054600160e01b161590565b610d2e828260405180602001604052806000815250610e48565b5050565b6000610d3d82610bef565b6001600160a01b038116600081815260066020526040902080546fffffffffffffffffffffffffffffffff01905590915081904260a01b177c0300000000000000000000000000000000000000000000000000000000176000848152600560205260408120919091557c020000000000000000000000000000000000000000000000000000000083169003610e0257600183016000818152600560205260408120549003610e00576001548114610e005760008181526005602052604090208390555b505b60405183906000906001600160a01b038416907fddf252ad1be2c89b69c2b068fc378daa952ba7f163c4a11628f55a4df523b3ef908390a4505060028054600101905550565b610e528383610eb5565b6001600160a01b0383163b15610afb576001548281035b610e7c6000868380600101945086610fe6565b610e99576040516368d2bf6b60e11b815260040160405180910390fd5b818110610e69578160015414610eae57600080fd5b5050505050565b6001546000829003610ef3576040517fb562e8dd00000000000000000000000000000000000000000000000000000000815260040160405180910390fd5b6001600160a01b03831660008181526006602090815260408083208054680100000000000000018802019055848352600590915281206001851460e11b4260a01b178317905582840190839083907fddf252ad1be2c89b69c2b068fc378daa952ba7f163c4a11628f55a4df523b3ef8180a4600183015b818114610fa257808360007fddf252ad1be2c89b69c2b068fc378daa952ba7f163c4a11628f55a4df523b3ef600080a4600101610f6a565b5081600003610fdd576040517f2e07630000000000000000000000000000000000000000000000000000000000815260040160405180910390fd5b60015550505050565b604051630a85bd0160e11b81526000906001600160a01b0385169063150b7a029061101b9033908990889088906004016114e7565b6020604051808303816000875af1925050508015611056575060408051601f3d908101601f1916820190925261105391810190611523565b60015b6110b4573d808015611084576040519150601f19603f3d011682016040523d82523d6000602084013e611089565b606091505b5080516000036110ac576040516368d2bf6b60e11b815260040160405180910390fd5b805181602001fd5b6001600160e01b031916630a85bd0160e11b149050949350505050565b5080546110dd90611320565b6000825580601f106110ed575050565b601f016020900490600052602060002090810190610b9291905b8082111561111b5760008155600101611107565b5090565b6001600160e01b031981168114610b9257600080fd5b60006020828403121561114757600080fd5b81356104558161111f565b60005b8381101561116d578181015183820152602001611155565b50506000910152565b6000815180845261118e816020860160208601611152565b601f01601f19169290920160200192915050565b6020815260006104556020830184611176565b6000602082840312156111c757600080fd5b5035919050565b80356001600160a01b03811681146111e557600080fd5b919050565b6000602082840312156111fc57600080fd5b610455826111ce565b6000806040838503121561121857600080fd5b82359150611228602084016111ce565b90509250929050565b6000602080830181845280855180835260408601915060408160051b870101925083870160005b8281101561128657603f19888603018452611274858351611176565b94509285019290850190600101611258565b5092979650505050505050565b600080600080606085870312156112a957600080fd5b84359350602085013567ffffffffffffffff808211156112c857600080fd5b818701915087601f8301126112dc57600080fd5b8135818111156112eb57600080fd5b8860208285010111156112fd57600080fd5b602083019550809450505050611315604086016111ce565b905092959194509250565b600181811c9082168061133457607f821691505b60208210810361135457634e487b7160e01b600052602260045260246000fd5b50919050565b634e487b7160e01b600052604160045260246000fd5b60006001820161139057634e487b7160e01b600052601160045260246000fd5b5060010190565b634e487b7160e01b600052603260045260246000fd5b600082516113bf818460208701611152565b9190910192915050565b601f821115610afb57600081815260208120601f850160051c810160208610156113f05750805b601f850160051c820191505b8181101561140f578281556001016113fc565b505050505050565b67ffffffffffffffff83111561142f5761142f61135a565b6114438361143d8354611320565b836113c9565b6000601f841160018114611477576000851561145f5750838201355b600019600387901b1c1916600186901b178355610eae565b600083815260209020601f19861690835b828110156114a85786850135825560209485019460019092019101611488565b50868210156114c55760001960f88860031b161c19848701351681555b505060018560011b0183555050505050565b8183823760009101908152919050565b60006001600160a01b038087168352808616602084015250836040830152608060608301526115196080830184611176565b9695505050505050565b60006020828403121561153557600080fd5b81516104558161111f56fea264697066735822122037882ea029d7dbb4188680d8bbbf3a445db50d326946e45347c912eab67d1d4864736f6c63430008110033",
  "linkReferences": {},
  "deployedLinkReferences": {}
}